:020000041000EA
:1000000000B5324B212058609868022188439860DF
:10001000D860186158612E4B002199600421596104
:100020000121F02299502B49196001219960352056
:1000300000F044F80222904214D00621196600F024
:1000400034F8196E01211966002018661A6600F04E
:100050002CF8196E196E196E052000F02FF8012189
:100060000842F9D1002199601B49196000215960AB
:100070001A491B48016001219960EB211966A021F2
:10008000196600F012F800219960164914480160C1
:100090000121996001BC002800D000471248134993
:1000A000086003C880F30888084703B5996A0420EC
:1000B0000142FBD001200142F8D103BD02B5186610
:1000C0001866FFF7F2FF186E186E02BD00000240BE
:1000D000000000180000070000035F00212200005C
:1000E000F4000018222000A00001001008ED00E03C
:1000F000000000000000000000000000070B8FD58A
:1001000090140020BD0E00106B330010A90E0010DB
:1001100000000000000000000000000000000000DF
:100120000000000000000000000000008D0F001023
:1001300000000000000000001D0F00104D1900100D
:10014000ED100010ED100010ED100010ED1000107B
:10015000ED100010ED100010ED100010ED1000106B
:10016000ED100010ED100010ED100010ED1000105B
:10017000ED100010ED100010ED100010ED1000104B
:10018000ED100010ED100010ED100010ED1000103B
:10019000ED100010ED100010ED100010ED1000102B
:0801A000ED100010ED1000103D
:1001A80002B4714649084900095C49008E4402BC02
:1001B8007047C046002934D00123002210B4884279
:1001C8002CD301242407A14204D2814202D209017E
:1001D8001B01F8E7E400A14204D2814202D249009F
:1001E8005B00F8E7884201D3401A1A434C08A04242
:1001F80002D3001B5C0822438C08A04202D3001BD8
:100208009C082243CC08A04202D3001BDC082243EE
:10021800002803D01B0901D00909E3E7100010BC2E
:10022800704701B5002000F00BF802BD0029F8D096
:1002380003B5FFF7C1FF0EBC4243891A1847C046F1
:100248007047C046D0400B00D1409C46203AD3406E
:100258001843524263469340184370471C210123B8
:100268001B04984201D3000C10391B0A984201D391
:10027800000A08391B09984201D30009043902A26F
:10028800105C40187047C0460403020201010101D6
:100298000000000000000000002B11D1002A0FD13F
:1002A800002900D1002802D00021C943080007B462
:1002B800024802A14018029003BDC04685FFFFFF17
:1002C80003B4684601B5029800F0C4FB019B9E4642
:1002D80002B00CBC7047C0464A02F8B5430244005D
:1002E800C50F500A84464800240E000E5F0AC90F45
:1002F8009B099209261A8D4200D09EE0002E42DD0D
:100308008021C90400281ED1002A0AD0661E012CAB
:1003180005D19B1801340B4246D1013C01E0FF2C6A
:1003280014D15A0704D00F221A40042A00D00433EB
:100338005A0100D42EE101340026FF2C19D09D4E1D
:10034800DB081E4015E0FF2CEBD00A431B2E01DD15
:100358000133E6E72020801B11008240F140501E47
:1003680082410A439B185A01DBD501340026FF2C31
:100378001AD1FF23E005DB057602760A18403043E0
:10038800ED072843F8BD002E2ED08026011BF60469
:10039800002C14D1002B00D1F3E04C1E01290AD106
:1003A8009B1802243342B8D0012283491A405B08C3
:1003B8000B401343B5E7FF2906D11300AEE0FF2831
:1003C80000D1E0E00C0033431B2C02DD531C040079
:1003D800A7E719002026E140341BA3405C1EA34177
:1003E8000B4304009B18BEE7FE20611C01421ED18E
:1003F800002C0DD1002B00D1C7E0002A00D190E7D6
:100408009B185A0100D48CE76C4A13400C0088E70B
:10041800002BD2D0FF24002A00D182E78023DB03FF
:100428009F4202D39C4500D26746FB0076E00C0051
:10043800FF299ED09B185B0873E7002E25DD002856
:100448001CD1002A00D16CE7661E012C06D19B1A2C
:100458005A0100D465E79B019E0975E0FF2C00D185
:100468005FE701211B2E07DC2020801B1100824042
:10047800F140501E824111435B1AE9E7FF2C00D17D
:100488004FE78021C9040A43EBE7002E25D0051B5E
:10049800002C0DD1002B08D06E1E012D03D10D00AC
:1004A800D31A0134D4E7FF2D08D113002C0021E022
:1004B800FF286CD080242E00E404234301241B2E43
:1004C80007DC2025AD1B1C00AB40F4405D1EAB4192
:1004D8001C43131B0D000400BAE7FE26601C3042C3
:1004E8002DD1002C14D1002B06D125002600131E77
:1004F80000D13EE70D0014E7002A00D111E79E1A4B
:10050800D31A7001F6D4331E00D00AE7350030E75D
:10051800002B05D1002A49D013000D00FF2400E765
:10052800FF24002A00D1FCE68023DB039F4200D28F
:100538007BE79C4500D378E767460D0075E79E1A70
:10054800700115D50D00D61A3000FFF787FE33006D
:1005580005388340844210DC2022001B0130121A27
:1005680019009340C1405A1E934100240B43D8E61A
:10057800002EE9D135003400FBE6104A241A134056
:10058800CFE6130042E7130021E71300C9E6130082
:100598000400AFE7DE08FF2C00D0EAE6002E00D109
:1005A800E7E68023DB03FF241E43E2E680261500EE
:1005B800F603F6E7FFFF7F1FFFFFFF7DFFFFFFFB4F
:1005C800F0B5C30F85B0440245000F1C640A2D0E18
:1005D800039302930AD0FF2D3BD08023E400DB0471
:1005E8001C4300237F3D019500930EE001230194F5
:1005F8000093002C09D02000FFF730FE431F9C40D9
:1006080076235B421B1A019300957D027E006D0ADA
:10061800360EFF0F002E23D0FF2E2ED08023ED00A4
:10062800DB041D4333007F3B002201980399C31A62
:10063800009879408000104301380E2823D8FFF72E
:10064800AFFD4D9973999299734D4D9273616161A4
:100658005300022301950093002CD6D00133C3E741
:100668002B000122002DE0D02800FFF7F7FD431FE3
:100678009D4076235B421B1AD6E733000222002DE9
:10068800D3D00132D1E764016D01AC4228D31A20DE
:100698000122641B0126270052006400002F01DBA1
:1006A800A54201D8641B324301380028F3D1601EEB
:1006B8008441144318007F30002838DD620704D0D5
:1006C8000F222240042A00D00434220103D58033AB
:1006D80018002B4A1440E508FE281DDD00250FE010
:1006E8001B200022013BD5E78023DB031C4203D0FB
:1006F8001D4201D12C00029780250299ED03254364
:10070800FF2009E00399009A022AE7D0032A2FD094
:1007180000252800012ACDD16D026D0AC0052843A5
:10072800C907084305B0F0BD2C003900ECE70122E9
:100738000025121A28001B2AEEDC9E3325009C4057
:10074800D540631E9C4125436B0704D00F232B40E3
:10075800042B00D0043580232800DB0418401D42F8
:100768000BD1ED08D8E780240023E4030293C3E704
:100778000291C1E700252800CEE700250120CBE73C
:10078800FFFFFFF7F0B5C30F85B0470244000291A1
:100798007F0A240E03930AD0FF2C71D080227F3C5D
:1007A80026000023FF00D204174301930CE0012325
:1007B8003E1E019308D03800FFF750FD7626431FF0
:1007C8009F407642361A0194029B5C025D00DB0F63
:1007D800640A2D0E02935AD0FF2D64D0802328007E
:1007E800E400DB041C437F3800230299039A4A4043
:1007F800811901988C46850001311D430A2D00DDC1
:1008080078E0022D55DC013D012D63D9250CA4B2F9
:1008180026003B0CB8B246435C4368436B4300195F
:100828001F00330C1B189C4202D9802040023F183D
:100838001804B6B28619B401601E84411B0CB60EAA
:10084800DB1934439B011C431B0168D50123600855
:100858001C40044308007F30002862DD630704D091
:100868000F232340042B00D00434230103D5803107
:1008780008003E4B1C40E508FE2833DD00254CE00F
:10088800022326000193002F9ED001338DE720001C
:100898000123002CA9D0FFF7E1FC431F9C407623DD
:1008A8005B42181AA0E728000223002C9DD00133D0
:1008B8009BE70120A840A6250600ED002E4028420F
:1008C8001DD19025AD00284247D1B93DFF3D2842B2
:1008D8009CD0029A022BD1D0032B42D000252800AD
:1008E800012BB7D16D026D0AC0052843D20710430A
:1008F80005B0F0BD039A0F2D04D00B2DE9D03C00B4
:10090800019BE7E78023DB031F4203D01C4201D190
:100918002700029A8025ED033D43FF20E2E7614668
:1009280098E7012300251B1A28001B2BDADC9E31CF
:1009380025008C40DD40631E9C4125436B0704D095
:100948000F232B40042B00D0043580232800DB0420
:1009580018401D4207D1ED08C4E780273200FF0385
:10096800D8E72700D6E700250120BBE7FFFFFFF700
:1009780041024300C20F490A00201B0E7E2B03DDF3
:100988009D2B02DD084BD0187047802000040843D7
:10099800952B05DD963B9840002AF5D04042F3E7B9
:1009A8009621CB1AD840F7E7FFFFFF7F002370B5E9
:1009B8000400984209D0FFF751FC9E231B1A962B7E
:1009C80008DC082829D0083884406402D805640A5D
:1009D800204370BD992B1BDD020021001B32914082
:1009E8000A00511E8A410521091ACC4014432200ED
:1009F8000B4D2A40610704D00F212140042900D063
:100A08000432510102D59F232A401B1AD408DCE77F
:100A1800421F0528EBD09440E9E79623D5E7C04666
:100A2800FFFFFFFB9140030090409C46203A934013
:100A3800194352426346D3401943704710B5002901
:100A480003D1FFF70BFC203002E00800FFF706FC9B
:100A580010BDC046F0B506000F0015001C0085B09B
:100A68008B4263D801D1824260D821002800FFF769
:100A7800E5FF390000903000FFF7E0FF009B210000
:100A88001B1A1A0028000393FFF7CCFF009001916E
:100A9800B94245D801D1B04242D8009B019C0120FF
:100AA8000021039AF61AA741FFF7BCFF04000D00C6
:100AB800039B002B2BD0019B009ADB07500818439F
:100AC800019B5908039B9C46B9422CD801D1B042DE
:100AD80029D832003B00121A8B41012692185B413B
:100AE8000027B6185F4101235B429C446346002BF4
:100AF800EAD130003900039AFFF7A4FB039AA4193E
:100B08007D4106000F00FFF78DFF241A8D410A9BD7
:100B1800002B01D01E605F602000290005B0F0BDE9
:100B280000240025C4E7B6197F41DCE7002400252E
:100B3800EDE700000300F7B50A001979DB880068C3
:100B48001343826894460269DC0206D5C024240354
:100B5800234202D0DD0700D5634001273D00084C41
:100B680016681C408D4001943400AC433B4201D0D0
:100B780034002C43634614601B68019A9847FEBDF5
:100B8800FFFFEFFF10B5024801F014FB10BDC0468F
:100B980080000020F8B5042501267642F7176D423B
:100BA8000C4832003B0001F037FB0B4C32003B0095
:100BB800200001F03BFA094A0949136801330B4048
:100BC80002D5013B2B4301331360200001F0A6FA44
:100BD800E6E7C046800000206C000020FC020020F0
:100BE80003000080F8B501246442E5170C4F2B0080
:100BF8002200380001F01AFA0A4B1E68380001F08A
:100C08008DFA0121084BF600F0589B191B79994081
:100C180083685B6998470021044803F001F8E5E719
:100C28006C000020FC0200207840001088130000AF
:100C380070B5B0260024294D7603286802F040FFDD
:100C4800002806D12648210002F071FB012040420D
:100C580070BD31002800FFF76DFF002801DA214838
:100C6800F1E701340835042CE7D11F4C200002F0CD
:100C780027FF002803D11D4802F059FBE6E7802131
:100C88001B484902FFF756FF002801DA1948F3E725
:100C9800A568AE69002E01D11748EDE78023A02290
:100CA800142120009B045204B0470028F4DB1349A8
:100CB800134B4B6080235B038B60EB69002B02D0E6
:100CC8000122200098470F4802F031FB01246442BA
:100CD800E5172000290002F0A3FFFAE7784000108A
:100CE800D4410010ED4100106C3E00100942001084
:100CF80070400010224200103E420010F002002016
:100D08008D0B00106442001010B5024B1B68984709
:100D180010BDC04600000020014B18607047C04657
:100D28000000002030B585B004000D00102200211D
:100D3800684602F0B8FF6A4602239370044B2A0003
:100D480021006846019301F09BFF05B030BDC04605
:100D5800110D0010F7B504000D001E00019201F0FE
:100D68002BFD030003F03AF8054F32003B50019980
:100D78002800A04703F032F8385800F0AFF8C04612
:100D88000800000030BFFDE7F7B50A4B0A4D060022
:100D9800EF18CC1B2A0020000849019302F07AFFC3
:100DA80060190021019A02F07EFF3800083C746641
:100DB8000830FEBD04000000000000004C40001098
:100DC800074A9368997B7F2908D85269934205D0CE
:100DD8008023044A5B0551680B4353607047C04643
:100DE8005C03002000ED00E070B5224B0C005B684E
:100DF80088B0DB05DB0D62B6BFF36F8F0025160EDA
:100E08002900FF2E09D1F33E1640082E05D0010017
:100E18000135120701D5210000250024032B14D128
:100E28008B69154A934202D3144A934206D3144A53
:100E38000024934209D3134A934206D2023B1A88EC
:100E4800114B00249A4200D10C682022684602F017
:100E580021FF079B002D0AD0DA0502D10B4A134364
:100E680007936946200002F06EFA08B070BD5B0A6D
:100E78005B02F5E700ED00E0A8010010F03D00106E
:100E8800000000200000002002DF0000FF01000039
:100E98000821024A53698B435361704700ED00E013
:100EA800EFF30880EFF3098101B57246FFF79CFF65
:100EB80001BDC04672B607480749401880F3098843
:100EC800EFF314800221084380F31488BFF36F8F77
:100ED80000F0A2F8900700200008000010B50A4BA7
:100EE8009B6883420DD1EFF30583002B09D0802244
:100EF800064B520559680A435A605A6A04490A401F
:100F08005A6201F05FFC10BD5C03002000ED00E0B8
:100F1800FF7FFFFF15498A6815481044EFF3098CD5
:100F2800F0C043464C4655465E466746F8C072B622
:100F3800104F114E4A698A603E60104C141920689F
:100F48000F4C2060906E00239366002800D162B693
:100F5800074C10191030F8C89846A146AA46B3465F
:100F6800BC462438F0C88CF3098870475C0300201D
:100F78003000000004ED00E00000000864000000FC
:100F88000003002004207146014202D0EFF30980DB
:100F980001D1EFF308808169023909780229FFD06D
:100FA80001B5724602F0D7F901BDC04643B200064A
:100FB80005D41F221A4001239340014A1360704749
:100FC80000E100E030B5FF2503220B00290040B204
:100FD8000240D20091409B012B40C9439340002816
:100FE8000ADBC0240A4A800880008018A40002593D
:100FF8000A401343035130BD0F2210400838054AF8
:10100800800880008018C26911401943C161F2E765
:1010180000E100E000ED00E0FF22084B10B593432B
:10102800074A9360BFF34F8FBFF36F8F00F066FFDF
:1010380001F0C6FC00F03EF800F0A0FF000100102F
:1010480000ED00E010B5203A1360029B01245360C4
:10105800039B06499360049BA143D36080235B04F0
:10106800D361002391610265836610BD5D0D001098
:1010780070B5094B15009860426E084B0E001A6057
:101088002C1C86F309880020054B9847201C00215A
:1010980000220023034C20475C03002000030020AB
:1010A800833300105D0D00101022014B1A61704748
:1010B80000ED00E0F0B5C02400220326FF25A400BF
:1010C80010002F003040C0008740054993089B005E
:1010D8005B1819590132B94319511A2AF0D1F0BDD8
:1010E80000E100E010B5EFF30583054A103BDB0093
:1010F800D118496898588847FFF762FE10BDC04666
:10110800803E001010B5024B1B689847002010BDA8
:1011180004030020034B044A1860022391780B4310
:10112800937070470403002004000020072310B5C3
:101138000449054A99430548521A02F0A0F80020CC
:1011480010BDC0469714002000200420080300208A
:1011580049B24368102916DC0A290BD00B2910D094
:101168000C224A431B689B18802292019B188022FC
:10117800120103E09B68054A9B182D2200201A6083
:101188007047DB68F7E716204042F9E704300000B3
:1011980049B24368102916DC0A290BD00B2910D054
:1011A8000C224A431B689B18C02292019B1880227C
:1011B800120103E09B68054A9B182D2200201A6043
:1011C8007047DB68F7E716204042F9E70420000083
:1011D800802310B5084A5B041360084A94691C42CE
:1011E80002D01620404210BD0160926910001840DC
:1011F8001A42F8D0F5E7C04618300640000006400D
:10120800030010B508000B2907D8FEF7C9FF090924
:1012180009091220282C2C2C33330120404210BD00
:101228001A680C234B439B58134ADB051B0FD056F7
:10123800F5E7124A0E201368116803220C001440C7
:101248001142ECD00E4A0238022CEED1E7E70D4AE3
:101258000420136812689207E1D00B4AE5E70B4BAC
:101268000B4A1B68E1E70C234B430A4A9B181B688F
:10127800094ADAE70C20D2E7AC420010308000407F
:10128800A94200103C800040A34200104880004062
:101298009C4200100080004096420010F8B50600FD
:1012A8000C00756821002800376902F078F80028DA
:1012B80000D16DE00E2C00D96AE02000FEF770FF27
:1012C8000808080808082A08080830306A62660012
:1012D800210028002F68FFF793FF01003000FFF777
:1012E800DDFF0C236343FB185E68051C5868C0B219
:1012F800FFF75CFB2849FFF763F9041C300AFFF786
:1013080055FB011C201CFEF7E7FF011C281CFFF7FA
:1013180057F9F8BD06212800FFF772FF0400C0E75F
:101328000A2C2DD1AF6821002800FFF769FF0100C2
:101338003000FFF7B3FF061CB868FFF737FB311C16
:10134800FFF720FA061C3F203D68FC682840FFF79D
:101358002DFB011C301CFFF733F90725061C200C58
:101368002840FFF723FB011C301CFFF729F9FF6811
:10137800041C380B2840FFF719FB011C201CC6E78A
:10138800EF68D0E73868FFF711FBC2E77868FAE73B
:101398000020BEE70148BCE700007F43001B374B35
:1013A800F0B544688FB0A36822220393E3685E49CE
:1013B80005A804932568276902F06CFC5B4B5C4A1E
:1013C8001A605C4B5C4A13601E005C4A12689643C4
:1013D800FAD10C2002F062FBAE6700F04BFC03214F
:1013E800574BDA6B8A43DA635A6C012AFCD1032122
:1013F8001A6B8A431A639A6B012AFCD1E269514B32
:1014080003985A43636A0093236AA16900F0CCFBEE
:10141800E26A4C4B04985A43636B0093A16A236BAE
:1014280000F0C2FB112105A802F003F8730005AA19
:101438009956C8B2092867D90136112EF6D1C023AA
:101448009B01EA1880231B0113603F4A3800AA1841
:1014580013603E4A1430AA1813603D4AAD182B6039
:101468002300AA25D83319682D012943FFF7B0FEB8
:10147800002855DB2300DC331B6836493800194344
:10148800FFF7A6FE00284BDB2300E0331B68002B88
:1014980048D029001F2B00D8591938001030FFF701
:1014A80097FE00283CDB2600E43631682A4D89B2D5
:1014B8002943381DFFF78CFE002831DB38003168DE
:1014C8000830090C2943FFF783FE002828DB234B4B
:1014D800194A1360194B1B68DB43DB01DD09002B3C
:1014E800F8D12900606902AA02F0DDF8002807DBBC
:1014F800029B2A001979186802F0E8F8002801DA36
:10150800831C0DD100200BE0090161180B6C0093BE
:101518004B6CCA6B896B02F09EFA00288CD1163886
:101528000FB0F0BD0E49B8E74C40001000E0004095
:10153800BFCDFBFEFE7F3C0000F0004008C000402D
:1015480000800040001BB7000C300000183000007D
:101558002430000000B0FA0000009696FFFFFF015B
:10156800A10A000010B5084802F0AAFA002808D01D
:10157800064C2000FFF7CEFD2000FFF7CDFB002032
:1015880010BD13204042FBE7583E0010991500108B
:1015980070B50400074D0A2804D1AB680D21280056
:1015A8005B689847AB6828005B68E1B29847200001
:1015B80070BDC046583E0010F7B506000024036908
:1015C8000193E308144A08339B009B5807222240E2
:1015D8009200D3400F22134203D101341E2CF0D1C4
:1015E800F7BD0F21200000F0CBFB019B59680029B3
:1015F800F3D00127A7400D680029EED08B681A00A8
:101608003A403B4202D030004B6898472B1E00D02E
:101618002B6829001D00EFE700410140436803499A
:101628001A68936B0B4093637047C0467FF8FFFFBF
:10163800F0B5036987B00191059204931B7A050000
:10164800002B00D09BE0002A0BD0012143681A68C8
:10165800136B8B43136343680F311A68D36A8B4348
:10166800D362EE226B681B68DC6A9443019A127994
:10167800012A06D0022A16D0002A04D08620404229
:101688006AE002221443019A5279012A03D0032AFC
:10169800F4D105321443019A90790328EED8FEF765
:1016A8007FFD0604181A0622ECE720221443019A4B
:1016B800D279002A11D0012AE0D18022196BD201F7
:1016C8000A431A636B681A688023116B1B020B4369
:1016D8000CE04022EAE76022E8E71A6B29490A4051
:1016E8001A636B6828491A68136B0B401363049BD1
:1016F80040267642F717D868019B810E1A68800148
:1017080000231201FEF7C8FD02900391029A039B81
:10171800B6185F41002F30D11C498E422DD8039B4B
:1017280069689806029B09689B0903434B623F213D
:101738006B68029A1B680A409A62BFF35F8F6B68F6
:1017480001991B680498DA6ADA626B6808221B68D8
:10175800DC6202F09FFA3800059B002B0BD06B6807
:101768001A681023D16A0B43D3626B681A68012385
:10177800116B0B43136307B0F0BD16207FE786207B
:101788004042F8E7FFBFFFFFFF7FFFFF80FF3F00FA
:10179800F7B5456804000669A86800285ED128697D
:1017A800002864D1377A002F2FD13900686801AA40
:1017B80001F079FF002859DB019B3A001979186874
:1017C80001F084FF002851D12B6A002B00D09847E4
:1017D800012163681A68136B8B43136363680F31C5
:1017E8001A68D36A8B43D362EB69002B4ED100226F
:1017F80031002000FFF71CFF63681A681023536349
:1018080062681268D16A0B43D362002263681B685E
:101818009A636368254A1B685A64337A002B13D18C
:10182800626812689364BFF36F8F022163681A6855
:10183800136B8B43136363681A68C023116B9B0097
:101848000B431363BFF36F8FAB69200098470123E5
:10185800327A3374002A1FD0002007E0E9688368D1
:10186800DB68002B1ED09847002898D0FEBD8368FF
:1018780069691B68984732002869696983680C326E
:10188800DB68002B00D18DE798478BE72000F168D3
:1018980098470028ABD0E9E762681268116B0B43E0
:1018A8001363D9E758204042E0E7C046FF0700002D
:1018B80070B580251049114B8C681B680E6810485C
:1018C8008A686D02002C08D1002A11D11A002E4214
:1018D80009D100681818801A70BD002A0AD02E4253
:1018E80001D1A242F5D90468E41804600968F0E758
:1018F8001C00F4E71A00F2E710E000E030030020D3
:101908002C0300200020094A136A1B021B0A1362D9
:10191800074B084A1A60084B084A1860084B5A6077
:101928000722986019680A431A60704700ED00E0C2
:1019380030030020D43000002C030020D3300000F6
:1019480010E000E0F8B50024FFF7B2FF0F4E2300C7
:1019580031680F4D0A002868696880185941286065
:1019680069600C4D34600C492E686F68801BFEF767
:1019780021FC0949230041430A0092197B412A604E
:101988006B6001F0F7F8FFF71BFAF8BD2C03002095
:101998007801002070010020D4300000F0B53B4BE6
:1019A8003B4D87B000295FD0421C08D101212A682D
:1019B8008A432A60FF2212061A6007B0F0BD1B682E
:1019C800039300230293012853DCEFF3108305935C
:1019D80072B6FFF76DFF00221100AB6804932D4B20
:1019E8001E685F6836184F4130003900186059602A
:1019F800294B009601971A60284B1C68009B1B1BFB
:101A080093423DDB264F0298264A78438018C01837
:101A18003900FEF7CFFB009B7843E41A8023201897
:101A2800DB00984200D218001F4B984200D91800DA
:101A3800164B184918600138AB6868600020A86028
:101A4800049AD41A9A421ED2039D621903000C68A4
:101A58004D6812196B410A604B60059B002BACD195
:101A680062B6BFF36F8FA8E71B680393431CA8D126
:101A78000E480F4B984200DD1800431E0293A4E75E
:101A88008020C000D4E72200E0E7C04630030020F1
:101A980010E000E0780100202C03002070010020F5
:101AA800D4300000D330000084C6FF003D0500009C
:101AB8003E05000070B5EFF3108572B6084A094B71
:101AC80014681B68E41AFFF7F3FE0019002D02D111
:101AD80062B6BFF36F8F0449FEF76CFB70BDC0465A
:101AE8007801002070010020D4300000F7B50C24E4
:101AF800444301932A4B0092E4186368089A05004E
:101B08000E00934200D26260C0232F1F9B01FFB2D8
:101B1800E318012F1BD8012E19D103221A60A368DC
:101B28003342FCD0009B22685B015340E022134003
:101B380080225201A21813600321236873400B40CE
:101B480013600123B340A2681342FCD01BE080223B
:101B580012011A60134BAA00D158002907D05869FE
:101B6800FEF728FB431C032058430338FDD2009B93
:101B780022685B015340E022134080225201A218E0
:101B88001360012FD8D9802380229B01E31812010A
:101B98001A60089B019A6360024BAD00EA50F7BDDA
:101BA8000080004034030020F8B5170004002948DD
:101BB8000D001E00FEF7FEFA274B0100FA18274B0E
:101BC8009A4201D901F0E6FB3800FEF7F3FA020069
:101BD8009823103A5B009A42F4D8731E062BF1D86A
:101BE800069B013B062BEDD8069B32041E03236897
:101BF8001643002B0FDA3F2223681340AB420AD169
:101C0800A3681B051B0D834205D1EE22E368D202AF
:101C18001340B3421CD0124B1249E21853425A41A6
:101C280001230C329340104A1360104A13601F00BE
:101C38000A6897433A1EFAD10D4B2132E318256002
:101C4800A0601A602268002AFCDA0822E6601A609E
:101C5800F8BDC046001BB70080E84BD380F8A93216
:101C68000040FDBF08C0004000E0004000F0004018
:101C780004300000AA22064B12011A602F220549DF
:101C8800DA60054A11605A68002AFCDA7047C046D3
:101C98000040024000B0FA00006002408023024A7F
:101CA8009B000B43D36270470080054010B5084B7A
:101CB8008200D3181C6840236340C0242340054C8D
:101CC800C00012191360044BC018416010BDC04613
:101CD80004C0014004D0014000400140064B800090
:101CE800C3181B68C90092000A435A400C231A40C3
:101CF800024BC0180260704704C0014004D0014084
:101D0800064BC000C3181B6809035940C0239B0138
:101D18001940034BC01801607047C0460440014099
:101D28000450014002238000002903D0024A801891
:101D380003607047014AFAE704E0014004F00140FB
:101D4800054B8000C3181B68594001231940034BF9
:101D5800C01801607047C04604C0014004D001406B
:101D6800054B8000C3181B680901594030231940EE
:101D7800024BC0180160704704C0014004D0014004
:101D88000722C308104080008140024A3C339B0070
:101D98009950704700400140F8B5D0231B061C68D5
:101DA800050063425C412F2364429C430A4B0F00A9
:101DB800E4181600FFF7E4FF07232B40ED089B000B
:101DC800AD009F4064198023002E00D1C0239B01E1
:101DD800E4182760F8BDC046304101404023800028
:101DE800002903D0024A801803607047014AFAE7C5
:101DF80004E0014004F0014070B5EFF3108572B6BD
:101E0800064B9C6801F06DFE002D02D162B6BFF34F
:101E18006F8F2000FFF762F870BDC0465C0300209A
:101E280070B50A4E83009D59013084003359AB4286
:101E380000D870BD6B68002B04D0280001F054FE58
:101E48000835F3E72B689847FAE7C046BC4100100D
:101E5800012270B5244B032086B01A70FFF7E0FF0B
:101E680000F006FF01F060FE0420FFF7D9FF1F4CC9
:101E780026001F4DAC420ED300F0B2FBAE4220D379
:101E880000F0BEFBFEF7D4FE01211A4A137B8B43F8
:101E9800137306B070BD636A0593236A0493E369FC
:101EA8000393A36902936369019323690093E36829
:101EB800A2686168206800F0D5F923685C65303451
:101EC800D7E7B26AF36A511C01D1591C05D0110039
:101ED8003068194303D100F04DFC3036CEE706498F
:101EE800183000F0D5FDF8E78C030020503F0010B3
:101EF800B03F0010F00100201D3C001010B5034A4F
:101F080003480021121A01F007FE10BD90030020BB
:101F18009000002070B57026012504004643010298
:101F2800114880220918002086B004950E350395C3
:101F3800053565430D4B0590029001900C48F61845
:101F48002D180C4B30000095520000F08BF904223C
:101F5800737B2C74934373730134074BE402E418C6
:101F6800EE606C6006B070BD900F0020800100200C
:101F78005C030020333B001090070020F0B50020E0
:101F880087B0FFF74DFF204B83F308881F49204B8C
:101F98000A6A00251A40C0231B0413430B62FEF78C
:101FA80077FFFFF781F81B4800F096F901F087FDED
:101FB8000120FFF735FF0220FFF732FF00F050FB4A
:101FC800154C164B80225C61154B164E0593012368
:101FD80015490493D200330020000395029501951A
:101FE800009500F03FF904220700637B200093432B
:101FF800637301F0E8FD2800FFF78CFF3200390019
:102008002000FFF735F8C046900F002000ED00E0F3
:10201800FFFF00FF60020020F00100205C030020A9
:1020280007430010591E001090100020F0B585B02D
:1020380004001F000392EFF3108672B6C368354A96
:10204800002B0ED080689168884217D0039B3B43D1
:102058001AD1002E02D162B6BFF36F8F1020404212
:102068000AE09168897B49B20133E3609368216192
:10207800A360002E04D0002005B0F0BD2169F3E76D
:1020880062B6BFF36F8FF6E70E23897BC35649B25A
:10209800994200DD19000A007F3201DA7F214942A6
:1020A80000258B4202DD01F047FD05001A4B220096
:1020B8000293039B310002980093019700F0EAF91C
:1020C8000028D8D0EFF3108672B6A068002819D07F
:1020D800236821699C420BD0002B09D09B7B5BB203
:1020E800994200DD19000B007F3301DA7F21494254
:1020F80001F022FD002805D03100029800F044FAD2
:102108000B20ACE7002DF7D1002EF9D162B6BFF352
:102118006F8FF5E75C0300208D030020F8B5836816
:102128000500002B3CD0214A926893423BD1C368FA
:10213800012B03D9013BC3600020F8BDEFF31087E2
:1021480072B60169806801F0F7FC2C68A54208D1D5
:102158000023AB60EB609F42EED162B6BFF36F8F96
:10216800EAE7002CF4D062682368002613605A60FE
:1021780002222000637B2660934363736660A66037
:10218800183001F064FD0E23AC60E35620002B618B
:10219800E66601F018FD3900054800F0F5F9CBE7CF
:1021A80016204042C9E70120FBE7C0465C03002037
:1021B8008D03002070B5EFF3108572B60468A04255
:1021C8001AD0002C18D062682368002613605A6061
:1021D80002222000637B2660934363736660A660D7
:1021E800183001F034FD2000E66601F0ECFC29000F
:1021F800084800F0C9F970BD8268C3689B1A591E67
:102208008B419B188360002DF5D162B6BFF36F8FA9
:10221800F1E7C0468D03002013B50400EFF31081E9
:1022280072B68068002808D00138A060002902D161
:1022380062B6BFF36F8F002016BD1000184307D198
:10224800002902D162B6BFF36F8F10204042F3E736
:10225800009201932200024800F01CF9ECE7C04606
:102268008D030020F0B587B00593030058338365CC
:10227800C365109B07270373042300250732BA435D
:102288004373D2190F9BBA4383738B180E00856072
:102298001900C5738561C56104000493FEF774FDD8
:1022A800049BC019B8431F1A0E9B3A0002930D9B5A
:1022B800310001930C9B20000093059BFEF7C2FEA2
:1022C800044B65659B68AB4200D01B6E38002366E3
:1022D80007B0F0BD5C0300200223FF338381002395
:1022E8000366014B986070475C0300200B21084A85
:1022F80049429368D9669866802306495B05486811
:1023080003434B6062B6BFF36F8F9368D86E704714
:102318005C03002000ED00E00D2370B5C356427B3E
:10232800002B38DBD30636D180235B4213431B4C8A
:102338004373A3691A49E2698B4207D1016042607D
:102348001060E06111E09A42F8D01B68002BF5D0CC
:102358000E250E2645579E57B542F4D0AE42F2DD03
:102368005A680360426010605860A5698D4201D0C8
:10237800002D00D1E568A3685A7BD20605D1DA8919
:102388007F2A02D9AA69002A06D0AB4202D02800C7
:1023980000F0C4FA656170BD6361FCE75C0300206E
:1023A800740300200D2270B582560500437B002A75
:1023B80004DA7F221340437301F0C9FB0D4E0E4A25
:1023C800B469B368944201D0002C00D1F468AB42E0
:1023D80008D05A7BD20605D1DA897F2A02D9A269A8
:1023E800002A05D0A34202D0200000F097FA23006B
:1023F800736170BD5C030020740300200D2270B56A
:1024080082560400437B002A04DA7F221340437378
:1024180001F09DFB8023627B5B4213431B4D63737A
:10242800AB691B49EA698B4207D12160626014607D
:10243800EC6111E09A42F8D01B68002BF5D00E2011
:102448000E2620569E57B042F4D08642F2DD5A68D6
:102458002360626014605C60AE69AB688E4201D034
:10246800002E00D1EE68A34208D05A7BD20605D1CF
:10247800DA897F2A02D9B269002A05D0B34202D08C
:10248800300000F04BFA33006B6170BD5C03002034
:1024980074030020F7B5009111000F4A0F4B9068A4
:1024A800089E099D1860EFF3108372B63700946890
:1024B8000195200001F05EFB013702D12B000133AA
:1024C80006D0200032002B000549183000F0E0FA51
:1024D8000098FFF70BFFFEBD5C0300207C03002083
:1024E8001D3C0010F7B50400EFF3108772B61F22E9
:1024F800437B1A4050425041C0B201904DB2002A6D
:102508003CD17F3213406373200001F020FB80230D
:10251800627B5B4213431A4EA5736373B36919490F
:102528008B4229D1F269216062601460F4610FE086
:102538009342F8D01B68002BF5D00E201856854220
:10254800F6D0A842F4DD5A682360626014605C60CB
:10255800B4698C4201D0002C00D1F468B3689C4265
:1025680002D0200000F0DAF97461002F02D162B6BF
:10257800BFF36F8F0198FEBDF269DCE7A573F4E73E
:102588005C0300207403002010B500290AD1EFF382
:102598000580002807D1064B9A685B699A4202D0E9
:1025A800FFF7A4FE10BD62B6BFF36F8FFAE7C0460F
:1025B8005C03002010B500280AD1EFF3058000283D
:1025C80007D1064B5A699B689A4202D0FFF78EFEE4
:1025D80010BD62B6BFF36F8FFAE7C0465C030020F8
:1025E800EFF3108172B6054B9A68D37B013BD37326
:1025F800002902D162B6BFF36F8F70475C030020D9
:1026080070B5EFF3108672B6134DAB68DA7B013202
:10261800DA73AC69114A944201D0002C00D1EC68FD
:102628005A7BD20605D1DA897F2A02D9A269002A03
:1026380005D0A34202D0200000F070F923006B619E
:10264800002E02D162B6BFF36F8FEFF3108072B61F
:10265800FFF7B0FF70BDC0465C0300207403002084
:10266800024B034A9A61DA617047C0465C03002056
:102678007403002070B5EFF3108572B61C4CA16886
:10268800E3690A68CB1A581E834149685B420A60AD
:1026980051601340E169A268002B05D1154B5160C8
:1026A80013600A60E2610CE00E200E2610569E5759
:1026B800B04218D0864216DD5968136051600A602E
:1026C8005A60A6690B4B9E4201D0002E00D1E668E5
:1026D800A3689E4202D0300000F020F9280066610D
:1026E800FFF704FE70BD8B42D8D01B68D4E7C04604
:1026F8005C03002074030020F7B5060004000D00F9
:102708000E4303D1FFF7B6FF3000FEBD4B1C26DB9E
:102718004B1C01D1831C22D301F0B8FA0719EFF33F
:102728001083019372B6104E104BB0681860FFF713
:1027380039FEB06822002B000D49183000F0A8F9C6
:102748000423B2680198517B0B435373FFF7CEFD06
:1027580001F09CFA381AC343DB171840D5E7022763
:102768007F423F1BDBE7C0465C0300207C03002060
:102778001D3C001070B50400EFF3108572B61830D8
:1027880001F065FA0422637B134205D1002D02D1C2
:1027980062B6BFF36F8F70BD934320006373FFF77A
:1027A800BBFDEFF30583002BF0D129000148FFF7AB
:1027B800EBFEF0E78D030020014B98687047C04698
:1027C8005C030020F7B50400EFF3108672B6027BB5
:1027D80001231100194001911A420BD0002E02D199
:1027E80062B6BFF36F8F62B6BFF36F8F0423181CF6
:1027F80002DFF7BD0823427B1A4205D0002EF8D12C
:1028080062B6BFF36F8FF4E71900114348B200288E
:1028180039DB6173A368002B02D0200001F09FF917
:1028280020002700183001F012FA5837A56DAF4282
:1028380001D0002D2FD11E4FBA68944205D1EFF375
:102848000583591E8B41DBB20193BD69194B9D422B
:1028580001D0002D00D1FD68AA4202D0280000F066
:102868005DF8019B7D61002B02D01348FFF734FD12
:10287800BB689C42C2D1EFF30583002BBED1300068
:10288800FFF734FDB5E77F210A4013432000637347
:1028980001F05DF9BEE7280001F061F92800183061
:1028A80001F0D5F900232800EB66FFF735FDBDE7F9
:1028B8005C03002074030020600200200121044B07
:1028C800044AC01A044BC0104343D1547047C04651
:1028D800D00200208D030020ABAAAAAAC289030057
:1028E80000207F2A11D80A4A106800280DD00E212E
:1028F800084A595612680020914206DB5A7BD206D4
:1029080003D10548181A431E9841012318407047FF
:1029180084030020800300208001002070B5182463
:102928000C4B05001E7C0C4B7443E418200001F08E
:102938008EF90022094B28009A55FFF7CFFF00288F
:1029480007D0074B20001A680649013AD31700F050
:102958009FF870BD5C030020D00200208D0300208A
:1029680084030020C528001070B5EFF3108572B6F7
:10297800104A114B94681868A04207D1FFF7CEFFA0
:10298800002D02D162B6BFF36F8F70BD00211960B0
:10299800127C0A4B9B5C8B42F2D02000FFF79EFF13
:1029A8000028EDD0637BDB0602D12000FFF726FD6F
:1029B8002000E3E75C0300207C0300208D03002057
:1029C8000648074A10B5121A064901F0A9F8064A3E
:1029D80006480749121A01F0A3F810BD00000020AC
:1029E8009000002058430010000000200000002044
:1029F80058430010024B1868984200D100207047D5
:102A08005C000020002010B5034B1B68834201D1F5
:102A1800FFF750F810BDC04688030020D0B5FFF777
:102A2800E9FF0400FFF7EEFF002C10D0226963696C
:102A38000600C717921BBB41002B08DC03D180217D
:102A480009068A4203D2D843C0171040D0BD0148B6
:102A5800FCE7C046FFFFFF7F30B500280ED00B4BC8
:102A68005B6898420AD00168002907D00A694B6957
:102A78000469456912196B410A614B610368426830
:102A880013605A6000230360436030BD5C0000207F
:102A9800F7B5040016001F00531C01D17B1C59D048
:102AA800A160EFF31083019372B6002F22DA7B1C2A
:102AB80001D1B31C1ED82C4B186859680222524207
:102AC800D317121A8B41921BBB41002B04DC01D196
:102AD800002A01D10122002322616361FFF78AFFE6
:102AE8000700224D6E68002F0FD1256066603460A4
:102AF8006C601CE0FFF786FF0122002392197B41DE
:102B08000600C71792197B41E6E738697969226997
:102B18006369994202DC1ED190421CD9801A9941FE
:102B28007B6838617961636027601C607C60FFF7AF
:102B380061FF844208D10E4B1C68002C04D1FFF7BA
:102B48006DFF2100FEF72AFF019B002B02D162B620
:102B5800BFF36F8FF7BD121A8B4122616361B742D1
:102B6800C3D03F68BFE7C046E80200205C000020F1
:102B780088030020F0B587B0EFF3108372B6019395
:102B88002E4B1860FFF736FF2D4F04003A687B681C
:102B980002920393294B9C461D6800280FD0426976
:102BA8000669EB179A4202DC23D1AE4221D91900FB
:102BB800226963692800121A8B41226163610298B5
:102BC80003992A00EB1712184B4100243A607B60E6
:102BD80063461C60FFF722FF2100FEF7DFFE019B22
:102BE800A34202D162B6BFF36F8FFFF7BDFE07B0F5
:102BF800F0BDF31704960593049A059B0298039970
:102C080080185941002300220D4D2261636128601C
:102C180069602000FFF720FF019B002B02D162B6FC
:102C2800BFF36F8F2000A3689847EFF3108372B645
:102C3800024A019313689B1B1360A3E788030020D3
:102C4800E802002010B5EFF3108472B6FFF7DAFE41
:102C580002000649C3170868496880185941002CC2
:102C680002D162B6BFF36F8F10BDC046E8020020E4
:102C780010B5024800F05BFB10BDC0460C430010C5
:102C8800F0B5436893B003900893837815009B07C9
:102C980000D4F8E0002301930E78002E6AD0252E88
:102CA8000DD04B1C0993019B013301930399089B99
:102CB800F0B29847002800DADFE00999ECE74E788F
:102CC8008B1C0993252EEED0002304211C00099AA1
:102CD8000293079309921F2C2ED830002038102811
:102CE8000AD8FDF75DFA1D0909270909091E09090E
:102CF800091B0925090918003300303B092B29D97C
:102D08002A2E32D108CD600622D4002B29DB2020C0
:102D18000793044305E001231C4302E002231C43FC
:102D28000C43099B01321E78002ED3D109922DE065
:102D38000823F1E71023EFE77F2C1ED83300303B40
:102D4800092BDDD8600605D50A20029E7043C318FA
:102D58000293E6E70A20079E7043C31807932023CF
:102D6800DAE75B4207932823D6E72E2E05D14023C6
:102D78001C42D1D0019813B0F0BD6C2E2DD027D8AD
:102D8800682E31D06A2E32D04C2E30D0029B002BC8
:102D980003DA40239C4300230293202333431A0081
:102DA800653A022A01D9612B24D10722EB1D9343EE
:102DB80008331D00AB4F0292240753D5019A029B9A
:102DC80016009C18B4424FD1079B029A9E1A82E1C2
:102DD800742EA6D07A2EA4D0D8E780231C429BD08C
:102DE80080208000044397E780235B00F6E7A02358
:102DF8009B0091E730006338122800D9E3E0FDF723
:102E0800CFF90A46E2E2E2E246E2E2E2E2E2F3DD9A
:102E1800E2E211E2AD0004CD0CAB1A7001230CAF55
:102E28000293C9E780CD002F00D18F4F0299630626
:102E380001D401214942380000F03DFF0290BBE770
:102E480020200399089B9847002816DB013C029B29
:102E5800A342F5D3079A019B944663441B1B019335
:102E68000794ABE7079CF2E7019B0399FB1A985D6F
:102E7800089B984701360028A4DA039B9A78042314
:102E88001343039A937001235B42019372E723066D
:102E98003FD5A30537D50722073595432F000CCF1B
:102EA80004920593102325009D43059B002B3ADAD5
:102EB8000499059A00244B42944104930594802375
:102EC800DB001D43ADB20CAC0A230498059922001F
:102ED80000F0FCFE041B6B0665D501232A009A430B
:102EE8001300029AA24200DCA4E0002E00D19CE06C
:102EF8001022290011400B91154200D09CE0029A43
:102F08001D0006921EE02F0008CF0493DB170593DF
:102F1800C8E72F0008CFE205F7D5A20501D55BB2B7
:102F2800F3E71BB2F1E7049B059A1343CBD1630681
:102F3800C9D5029B002BC6D111339C43029B2500A7
:102F48001C0006932A00494B1A400B921D4277D069
:102F5800069B0133069300230B9371E010239C43D7
:102F6800063B9C46802322001A4006921C4242D00F
:102F780021008133FF3319401C4239D00722EB1D51
:102F880093431F0003CB083703000B4346D12500AA
:102F980016339D43630644D5029B002B41D117335A
:102FA8009C432500029C10232A001A400B921D42C4
:102FB80056D0631C002E42D022003FE01023782612
:102FC8009C461C43CEE7782B04D110229B1B1A4346
:102FD8009446C7E725200399089B9847002800DAFC
:102FE8004BE7019B023360E6082300269C46B9E7BD
:102FF8002F0001CFC8E72F008022210008CF520000
:10300800180011401442BFD08022210092001140C4
:1030180098B21442B8D00699D8B2B5E706239C43B3
:1030280025000CAC6346220052E711239D43029B06
:10303800069387E71D00B6E71D00029A931C0693C6
:103048002B072AD4EB0709D5079B069A02949342CB
:1030580004DD9B1A1B190293079B0693069B10E03D
:1030680006946FE74E430010474300100604000023
:1030780020200399089B9847002800DAFDE60A9B60
:1030880001330A930A9A079B9342F1DC069A019B43
:103098009B1A0A9A9B18019306920B9B002B25D02A
:1030A80030200399089B9847002800DAE5E6019B41
:1030B800002E12D101330193019E029B019A9B18A5
:1030C8009B1BA34220DC2500002D25D13D00079B3A
:1030D800069AA4199E1A019431E002330193F0B2C2
:1030E8000399089B98470028E6DAC6E6174B1D4265
:1030F800E2D02020AB0700D50B306D0500D52D2080
:10310800019B01330193EBE730200399089B0136BB
:1031180098470028D1DAB0E60CAB013DE85C03998A
:10312800089B98470028CFDAA7E6019B20200133A7
:1031380001930399089B9847002800DA9DE6019AB5
:10314800A3199B1A002BF0DCB7E5C0460604000063
:1031580070478023C900411880681B02984202D337
:103168009200505870475200505AFBE710B580241F
:10317800C900411880682402A04202D3920053502B
:1031880010BD52005352FBE710B50122FFF7E1FFD3
:10319800400810BD10B58024C9004118806801237B
:1031A8002402A04208D34868002A02D003434B6097
:1031B80010BD98434860FBE74888002A02D00343C3
:1031C8004B80F5E798434880F2E710B55300012299
:1031D800FFF7CCFF10BD8022042310B512029042E5
:1031E80000D3DB180833DB080131C81AFDF736F8BD
:1031F8001F23181A10BDF8B50D0004008668FFF7E4
:10320800C3FF802301001B029E4201D3012819D06D
:103218003000FFF7E0FF8300E3181E69002E12D18B
:1032280001218140E26820000A43E260290002226D
:103238001D612B00FFF79AFF2B00032229002000B5
:10324800FFF794FFF8BD022231002000FFF781FF4D
:1032580007000300022229002000FFF787FF330040
:10326800032229002000FFF781FF2B0003223900E9
:103278002000FFF77BFF2B0002223100DFE7F8B5C3
:1032880080230824DB029A4200D2043C072300274B
:10329800141BCD1D0C199D439C43641BE408056059
:1032A80021002000AC60EF60FFF795FF431D9B00F5
:1032B800DE1D3A00F608013001DB103B1A00280039
:1032C8000021103000F0EFFC320028000021FFF749
:1032D8007CFF002328001A001900FFF747FFA71BEF
:1032E800280001220021FFF755FF3A00310028008D
:1032F800FFF76BFF3300310028000022FFF736FF8D
:10330800280021000022FFF760FF3B002800210071
:103318000022FFF72BFF280001222100FFF73AFFC8
:1033280031002800FFF767FFF8BD002070470FB491
:1033380007B504A901C90191FDF7F4FC03B008BC65
:1033480004B01847704710B5012801D1EFF3058381
:10335800FEF752FD10BD10B501000068FFF7F3FF3E
:1033680010BD10B5FDF70EFDFDF72AFD10BD10B517
:1033780000210120FFF7E7FF10BD002802D162B647
:10338800BFF36F8F7047BFF34F8F30BF62B6BFF385
:103398006F8F704710B5FDF7B5FE002010BD030014
:1033A80001200A1FD2B200B582420DD90E290AD8CF
:1033B8000800FCF7F5FE0A0A0A0A08080A0A0A0AB7
:1033C80011111D212100002000BD1A680C234B4358
:1033D80098580005C00FF7E70A2907D19B68586875
:1033E8002923184043425841C0B2EDE7DB68F6E7AD
:1033F8005B685868C004EDE70120E5E749B20300BF
:1034080010B5EA20102904DC5868FFF7C8FF01301E
:10341800C0B210BD49B210B51400102906DCFDF782
:103428003DFFFDF7A5FA2060002010BD16204042A0
:10343800FBE70123F0B50700002587B05B42039145
:1034480001900293039B9D4224D22E006C003C19EC
:103458000123029AE35693420FD16B00F818FB56EA
:10346800022204930123C3562100059300F012FCA5
:10347800049B01352370059B6370039B013602345E
:10348800B342E5D1019B1B785BB20293019B0233E7
:103498000193D7E707B0F0BDD0231B065B68002077
:1034A8000B6070470A0010B503691000196988435A
:1034B8000100D020000641611C6959692140114072
:1034C800816219695B69114099434162002010BD0E
:1034D8000A0010B503691000196988430100D0205B
:1034E800000681611C6959692140114041621969CE
:1034F8005B69114099438162002010BD036908008F
:103508001A699043D0221206D0611B6900200B4033
:10351800D362704710B503695868002821D08842E3
:103528001BD108689C685860A14200D198600020AF
:103538000860824206D05A680A609A685960002A70
:1035480000D19960002010E0814206D1086820600F
:1035580098688142EBD19C60E9E704000068002884
:10356800F2D1002AE7D11620404210BD10B54368B9
:103578005B689847002010BDF7B50D000769160075
:103588000F21002228001C00FEF706FC0122130070
:10359800AB40019380239B039E4205D1FB68019AAF
:1035A80093430020FB60FEBD8023610EDB042340B3
:1035B8001140F6010DD58900002B01D008231943CD
:1035C80001222800FEF7E8FBFB68019A1A43130062
:1035D800E7E7002BF4D00223F1E710B5002203211E
:1035E8000D20FDF7EFFC0D20FDF7E0FC10BD30B518
:1035F8000469D02000060369256953400B40AB439A
:103608000D00C361036A53409D432B0025691D408B
:1036180063692B40C362036A5A400A40216963699F
:1036280011409943C162002030BDF8B515000F0064
:103638000124520929090669214038002240FEF771
:103648004DFB05213800FEF731FBAB0325D5BC4007
:103658003269A90715D522433261D0227169120651
:10366800680707D52143716194616D0307D55462DA
:103678000020F8BDA143716154612D03F7D4946211
:10368800F6E7A2433261D0221206290301D554611C
:10369800EDE76D03EBD59461E9E7ED03E8D5D022BA
:1036A800BC401206EBE730B503681360057904687F
:1036B800ED006419A34202D30220404230BD5C7978
:1036C8008C4201D00833F0E70020F7E7F8B5040092
:1036D80001268D004519AC4201D10020F8BD2078A3
:1036E800271DC006C00E00F0DFF921882078890563
:1036F800C006C90EC00EFEF7D9FAA2782078617804
:10370800D207C006D20FC909C00EFEF7E7FA6178E2
:1037180020788906C006090FC00EFEF721FB6178E4
:1037280020788909C0063140C00EFEF709FBA17850
:1037380020784907C006C90FC00EFEF7F3FAA17832
:1037480020788907C006C90FC00EFEF747FBA1788D
:103758002078C906C006890FC00EFEF7D1FA3C00D2
:10376800B9E70020704783680079022809D0042847
:103778000BD001280CD1C9180B78DBB200201360DC
:103788007047C9180B889BB2F8E7C9180B68F5E7AA
:1037980016204042F4E70300F0B585B05F68019257
:1037A8003E790800F100FCF741FD03AA04000D0072
:1037B80081B23800FFF7D7FF002817D101220399FB
:1037C800EDB2AA400B00944693437D79019A954245
:1037D80001D063460B43BA68022E09D0042E0CD0E0
:1037E800012E0ED1A4B2DBB2A418237005B0F0BD2F
:1037F800A4B29BB2A4182380F8E7A4B2A41823604B
:10380800F4E716204042F1E710B50122FFF7C3FFA5
:1038180010BD10B50022FFF7BEFF10BD70B5040043
:103828000D00FFF7F1FF002803D129002000FFF762
:10383800F0FF70BD030073B55E68080031791400AD
:10384800C900FCF7F3FC01AA0D0081B23000FFF7B4
:103858008AFF002809D1019BEDB2EB4001229A436F
:10386800737959424B415340237076BD02694368CE
:10387800127A1B68002A05D11A6BD2070DD51A6B6C
:1038880092050AD59A69D20607D41B680B7043685B
:103898001B6858680F231840704701204042FBE717
:1038A800202243681B6898691042FCD11960704750
:1038B80043681B6858685A680007C00F520701D54B
:1038C8000822104302225968114200D010435B6855
:1038D800DB0701D504231843704710B5036911CBE2
:1038E80011C1002010BD030070B5002020265C68BF
:1038F8002468A569354202D1151A002D00DC70BD77
:103908000D5C01302560F2E7030070B5002010253A
:10391800141A002C04DD5C682468A6692E4200D0C5
:1039280070BD24680C540130F2E710B5436804698F
:103938001A682023916B0B439363237C002B06D0DA
:103948006369002B01D0A16998470023237410BD37
:10395800202143681A68936B8B43936370474368CD
:1039680001201B689B69DB0898437047026943681C
:10397800127A1B68002A06D1196B01320800FF323F
:10398800104011420BD02022996B0020114206D022
:10399800D96B0130114202D19B69DB09184070478D
:1039A80043681A685023916B0B4393637047502107
:1039B80043681A68936B8B43936370470269436843
:1039C800127A1B68002A06D1196B8022080092001F
:1039D8001040114207D09A6B0020D20603D59B698C
:1039E80001301B099843704743681A68F023916BAC
:1039F800DB000B439363704710B50400FFF7DEFF4D
:103A080003000120002B04D12000FFF7AFFF431E65
:103A1800984110BD01207047036959619A61704748
:103A280010B502695369002B01D09169984710BD00
:103A3800002070470020704710B500220321142091
:103A4800FDF7C0FA1420FDF7B1FA10BD10B5012238
:103A5800FDF7EEFD10BDF0B585B016000A9A02908C
:103A68000391934201D2FFF795FC1F0E1C020A9A9C
:103A7800002320003900FCF70FFC0023050002009A
:103A880039002000FCF708FC320003000399029873
:103A98000095FEF72BF8012005B0F0BD10B5010028
:103AA8000020FEF7FBF810BD0123D022834010B59B
:103AB8001206936205219361FEF7F8F810BD70476E
:103AC800002809D00123C26800205178194202D089
:103AD80010784242504118407047EFF3108372B695
:103AE800FEE710B5FFF7F9FF10B518C8002B06D18F
:103AF80000200123E26851780B43537010BD200069
:103B080098470028F4D0C317C0185840FF2800DD94
:103B1800FF20E3681870ECE710B500F0C4F810BD9A
:103B280010B500F0B7F810BD704710B5EFF310836B
:103B380072B6FFF728FCF9E70E2210B5825600236B
:103B48008A4202D0FEF7CEFC0300180010BD0368BD
:103B5800426813605A60002303604360704710B5E1
:103B68000400FFF7F4FF0222637B9343637300238F
:103B7800A36010BD70B504000D00FEF713FC02230E
:103B8800627B13436373002D1CD0A5602B689D4294
:103B980009D16B68256063601C606C6012E06A681C
:103BA8009A42F6D01B68002BF3D00E220E21A256A3
:103BB80059568A42F3D09142F1DD5A682360626017
:103BC80014605C6070BD10B5EFF3108472B6FEF738
:103BD800A3FB002C02D162B6BFF36F8F10BD70B586
:103BE8000400EFF3108572B62823427B1A420BD1EA
:103BF8008368002B01D0FFF7B2FF0422637B20000B
:103C080093436373FEF788FB002D02D162B6BFF3BE
:103C18006F8F70BD10B501211838FFF7E0FF10BD98
:103C280070B506000C000D00FEF766FD013601D1E7
:103C380001350AD00200C317002109208018594114
:103C48000A220023FCF728FB70BD2000FCE770B5B2
:103C58000400EFF3108572B60368002B13D0FEF74B
:103C6800C9FE06002000FEF7F7FEA64204D1FEF7C3
:103C7800D5FE0021FDF792FE0020002D02D162B68C
:103C8800BFF36F8F70BD16204042F6E710B5FEF700
:103C9800D9FF10BD002310B59A4200D110BDCC5CED
:103CA800C4540133F8E703008218934200D17047E7
:103CB80019700133F9E7030041188B4202D01A78D2
:103CC800002A01D1181A70470133F6E7F0B50D0044
:103CD8003721C91A8FB0C9B20D911F2104000B40BA
:103CE8000C930C99E3B2082955D0102900D164E04F
:103CF800E90760080843690806900791A008A90722
:103D08000843A90808900991089E099F06980799F1
:103D1800801979410E07B446060900966646009F49
:103D280037430E0900970196009E019F801979413B
:103D38000E06B4466746060A3E4302960E0A0396E6
:103D4800029E039F801979410E04B4466746060C0B
:103D58003E4304960E0C0596049E059F80197941F2
:103D680000260A910B960A9E0B9F801979414E07EF
:103D7800CD080521C4083443614349005B1ADBB20E
:103D8800092B12D9012000210A3B24184D41DBB22E
:103D98001DE00200A5E707210B4069078C4666462F
:103DA800E008E908064334000D003033137023009F
:103DB800501C2B43EDD10FB0F0BD0F210B4029074C
:103DC8008C46664620092909064334000D00092B54
:103DD800EBD90D99CB18DBB2E7E700000148006882
:083DE8007047000000030020F9
:083DF0006CCCFF7F0100000014
:103DF800A9130010303E00106B370010443E00102D
:103E080099170010583E00106D15001000000000B2
:103E18000D1900100000000035110010000000000E
:083E2800753500106C3E00101E
:103E3000B742001098400010E43F001064000020DA
:103E400014000020DF42001098410010D43F001001
:103E50006800002000000000F94200103800002037
:103E6000004000106A0000201C000020D142001019
:103E700090410010B03F00106600002014030020A5
:103E800000000000773300100000000077330010BE
:103E900000000000773300100000000077330010AE
:103EA000000000007733001000000000773300109E
:103EB000000000007733001000000000773300108E
:103EC000000000007733001000000000773300107E
:103ED000000000007733001000000000773300106E
:103EE00000000000773300106C3E0010C115001078
:103EF000000000007733001000000000773300104E
:103F0000000000007733001000000000773300103D
:103F1000000000007733001000000000773300102D
:103F2000583E0010293A00100000000077330010BE
:103F3000000000007733001000000000773300100D
:103F400000000000773300100000000077330010FD
:103F5000000100209005002000020000ED0B001081
:103F6000000000000000000000000000050000004C
:103F70000000000088420010000000000000000067
:103F80009000002090030020000200009D0B001014
:103F9000000000000000000000000000060000001B
:103FA0000000000079420010000000000000000046
:103FB00033360010A1340010F7350010AD34001076
:103FC000D934001005350010813500101D35001062
:043FD00000000000ED
:103FD4003D380010113800101B380010253800102F
:103FE4005911001099110010000000001D34001038
:0C3FF40005340010000000000000000078
:1040000075380010A9380010B9380010553A001062
:10401000E3380010EF380010113900103339001068
:104020005939001075390010A9390010B73900103E
:1040300067390010C5390010F1390010251600103D
:0C404000013A00101D3A0010213A001057
:10404C00000A010A020A030A040C050A0605070BFA
:10405C00080B090B0A0C0B0C0CFF0DFF0E0D0FFFC0
:10406C0010FF00006C3E0010140011006C3E00109C
:10407C00000000006C3E0010010000006C3E0010BF
:10408C00020000006C3E00100300000000800040A5
:10409C00004002400080024000C002400000064088
:1040AC0088410010010000007D00000006000000A7
:1040BC000200000001000000640000000500000088
:1040CC0005000000000000000000000040597307CC
:1040DC0040597307000000000000000040597307AE
:1040EC00405973070000000000000000405973079E
:1040FC00405973070000000000000000405973078E
:10410C00405973070200000000000000001BB700BC
:10411C00001BB700010000000000000040597307AD
:10412C00405973070000000000000000405973075D
:10413C00405973070000000000000000006CDC0216
:10414C00006CDC020000000000000000006CDC02CF
:10415C00006CDC0200000000000000001BB7000037
:10416C00006CDC020C000000A00A00001000000033
:10417C000000000000000000000000009041001052
:10418C0000000000FFFFFF3FE335001000C00040BF
:10419C000400000000C00040AC4100100100000011
:1041AC00B441001002000000400400004104020071
:1041BC00F83D0010F83D0010183E0010203E001095
:1041CC00303E0010303E00104C45442025642064E5
:1041DC006576696365206E6F742072656164790A17
:1041EC00004661696C656420746F20636F6E66694C
:1041FC0067757265204C45442025640A004275742D
:10420C00746F6E20646576696365206E6F742072BE
:10421C00656164790A004661696C656420746F207D
:10422C00636F6E66696775726520627574746F6E04
:10423C000A004661696C656420746F20636F6E665A
:10424C00696775726520627574746F6E20696E741F
:10425C006572727570740A004170706C6963617478
:10426C00696F6E20737461727465640A0062757490
:10427C00746F6E5F7461736B5F696400626C696EFE
:10428C006B5F7461736B5F6964000B0A0E0C0F102B
:10429C00050A0B0E0C0F100A0B0D0C0F100B0F1048
:1042AC000A0F100B0E0C0507080904636C6F636B87
:1042BC002D636F6E74726F6C6C657240343030307D
:1042CC0038303030006770696F4034303031343002
:1042DC0030300072657365742D636F6E74726F6C21
:1042EC006C65724034303030633030300075617240
:1042FC0074403430303334303030006D61696E00CE
:10430C002A2A2A20426F6F74696E67205A6570687A
:10431C007972204F53206275696C642076342E308C
:10432C002E302D343336362D6737376133353065C3
:10433C006661373465202A2A2A0A00286E756C6C4F
:0C434C0029002A666C6F61742A000000D2
:1043580033330010000000009D33001000000000FF
:1043680000000000A02E6300A02E630000C2010020
:104378000001030000000000000000000000000031
:10438800000000000000000000400340A4410010AD
:104398000000000000000000303E00100600000091
:1043A800413A00103D3A0010393A00105C000020F4
:0443B8005C00002085
:0843BC000000000000000000F9
:1043C4006C0000206C0000200000000000000000D1
:0443D4000E000000D7
:1043D8008000002080000020000000000100000094
:0443E80015E015E0E7
:0400000510000EBD1C
:00000001FF
